:060000000A128A11122809
:10000800FE00030EF6000408F7000A08F800831241
:1000180003137F08F9000A128A11232C0A128A1185
:100028001528F001F101F201F301F40183132030E6
:10003800840061300A128A1118250A128A11A03028
:100048008400EF300A128A11182583010A128A11D6
:100058006C2A83160313EF01831203135F08133A04
:10006800031D0800831603133C0883120313EE00D4
:100078006E08E100831603133B080A128A11F22165
:100088000A128A1183120313EF006F08BB0083164C
:1000980003133F0883120313EE006E08E100831672
:1000A80003133E080A128A11F2210A128A118312D6
:1000B8000313EF006F08BE00831603134208831270
:1000C8000313EE006E08E1008316031341080A12B9
:1000D8008A11F2210A128A1183120313EF006F08A2
:1000E800C10083160313450883120313EE006E083C
:1000F800E1008316031344080A128A11F2210A1236
:100108008A1183120313EF006F08C40083160313C8
:10011800480883120313EE006E08E10083160313E8
:1001280047080A128A11F2210A128A11831203134C
:10013800EF006F08DD0083160313540883120313BE
:100148003B06031DC2283B08EE006E088316031306
:10015800D400540883120313EE006E08A200133073
:100168000A128A119B230A128A1183120313E201CD
:1001780022080A128A114E230A128A1183160313BF
:100188005708831203133E06031DE5283E08EE00B8
:100198006E0883160313D700570883120313EE0063
:1001A8006E08A50024300A128A119B230A128A11AC
:1001B80083120313E20125080A128A114E230A1238
:1001C8008A11831603135A08831203134106031D69
:1001D80008294108EE006E0883160313DA005A084E
:1001E80083120313EE006E08A80035300A128A1134
:1001F8009B230A128A1183120313E20128080A12A8
:100208008A114E230A128A11831603135D0883127A
:1002180003134406031D2B294408EE006E088316B9
:100228000313DD005D0883120313EE006E08AB00B4
:1002380001300A128A119B230A128A1183120313AE
:10024800E2012B080A128A114E230A128A1183121C
:1002580003135E085D06031D47295D08EE006E085E
:10026800DE005E08EE006E08F1000A128A117224A0
:100278000A128A11831203136208610403194629BA
:100288008616472986123B08EE006E08831603136C
:10029800D400831203133E08EE006E08831603137E
:1002A800D700831203134108EE006E088316031368
:1002B800DA00831203134408EE006E088316031352
:1002C800DD00831203135D08EE006E08DE00DF0117
:1002D800080083120313E30001306305E1000808F6
:1002E8006106FE39610688006308E1000310610CAD
:1002F8000139E200E20D08086206FD39620688004D
:100308006308E10002300310E10CFF3E031D87295A
:1003180061080139E200E20DE20D08086206FB39C6
:10032800620688006308E10003300310E10CFF3E19
:10033800031D992961080139E200E20DE20DE20D81
:1003480008086206F739620688006308E10004308D
:100358000310E10CFF3E031DAC2961080139E200DE
:10036800E20E08086206EF39620688006308E100B9
:1003780005300310E10CFF3E031DBD29610801395A
:10038800E200E20EE20D08086206DF396206880024
:100398006308E10006300310E10CFF3E031DCF297E
:1003A80061080139E200E20EE20DE20D080862067A
:1003B800BF39620688006308E10007300310E10CCA
:1003C800FF3E031DE22961080139E200E20CE20C5C
:1003D800080862067F396206880008008312031342
:1003E800E700E40130306702031CFE293A30670257
:1003F800031C062A30306102031C2B2A3A306102A2
:1004080003182B2A3A30670203181D2A67080F3988
:10041800E2006208E50065080F39E20003300310C6
:10042800E20DFF3E031D132A0310620DE30063086B
:10043800E4043A30610203182B2A61080F39E200FC
:100448006208E60066080F39E2006208E4044130F9
:100458006702031C332A47306702031C3B2A4130DA
:100468006102031C6A2A4730610203186A2A413074
:100478006702031C572A473067020318572A670880
:100488000F39C93EE2006208E50065080F39E2004D
:1004980003300310E20DFF3E031D4D2A0310620DC9
:1004A800E3006308E40441306102031C6A2A473010
:1004B800610203186A2A61080F39C93EE20062081E
:1004C800E60066080F39E2006208E40464080800E0
:1004D8000A128A114B240A128A110A128A1120253B
:1004E8000A128A110A128A11FF240A128A110A12A0
:1004F8008A11ED240A128A110A128A11F8230A12A3
:100508008A110A128A112D200A128A1183120313E2
:100518002B080A128A116D210A128A110A128A11ED
:10052800DB240A128A118312031328080A128A117B
:100538006D210A128A110A128A11C9240A128A1113
:100548008312031325080A128A116D210A128A11CF
:100558000A128A11B7240A128A1183120313220875
:100568000A128A116D210A128A110A128A11A52407
:060578000A128A11852A17
:1006000003308A000408840A820700340D340A3457
:10061000203464346134743461345F345234783457
:100620005B34313431345D3420343D342034003493
:100630000D340A34203464346134743461345F34EA
:10064000523478345B3432345D3420343D342034D9
:1006500000340D340A342034643461347434613429
:100660005F34523478345B3435345D3420343D3477
:10067000203400340D340A3420346434613474344A
:1006800061345F34523478345B3438345D34203430
:100690003D34203400340D340A3400348312031303
:1006A000E70067080F39E3006308E5006708E30027
:1006B00004300310E30CFF3E031D592B63080F3970
:1006C000E4006408E700E601023066020318912B9B
:1006D000660803196F2B6508E3006308E7000A301A
:1006E00067020318752B30307E2B0A306702031C1B
:1006F000812B103067020318812B3730E300630829
:10070000E70767080A128A110C250A128A110130BC
:1007100083120313E3006308E60702306602031C3A
:10072000682B62080319080020300A128A110C2570
:1007300083120313080083120313EB006B080A12E1
:100740008A11CC230A128A11831203136208EA0168
:10075000EA076108E901E907EC01ED016A086D02A9
:10076000031DB42B69086C02031808006C086B07A2
:1007700084000A128A1100230A128A110A128A11AD
:100780000C250A128A11013083120313EC07031897
:10079000ED0A0030ED07AE2B83120313E700670864
:1007A000E3006308E800680884000A128A11002345
:1007B0000A128A1100380319E22B0130E3006308A2
:1007C000E807D32B6708E3008030E400E309E4097D
:1007D000E30A0319E40A6808E5008030E6006308CC
:1007E0006507E10064080318640A6607E200080070
:1007F00000300A128A116D210A128A110A128A1116
:10080000DB240A128A1100300A128A116D210A12A1
:100810008A110A128A11C9240A128A1100300A1296
:100820008A116D210A128A110A128A11B7240A123A
:100830008A1100300A128A116D210A128A110A12D5
:100840008A11A52408000C1C302C8E018F01013068
:10085000F5007508F00770080A3A0319F0010C104A
:100860008C1E402C1A08F5005F08B93E84007508FC
:10087000831380000130F5007508DF078C129A01A0
:100880007908FF0078088A0077088400760E8300D4
:10089000FE0E7E0E0900831603130810881008113F
:1008A0008811081288120813881383120313081082
:1008B00088100811881108128812081388138316EB
:1008C0000313861006118611061286128312031373
:1008D0008614061586150616861283160313071747
:1008E0008717080083120313E601E7012508220792
:1008F000E30028086307E4002B086407E5006508A7
:10090000E70067087106031D882CE101E201080079
:100910000130E1000030E200080083120313D60129
:10092000D7015708803AFF0080307F02031D9A2CC0
:100930006430560203180800013083120313D607EF
:100940000318D70A0030D707912C8312031306121D
:100950000A128A118D240A128A11831203130616B1
:100960000A128A118D2483120313061208008312BF
:10097000031386110A128A118D240A128A11831216
:10098000031386150A128A118D248312031386110C
:1009900008008312031306110A128A118D240A1209
:1009A0008A118312031306150A128A118D248312E9
:1009B0000313061108008312031386100A128A110A
:1009C0008D240A128A118312031386140A128A11C3
:1009D0008D2483120313861008000C308316031332
:1009E00099001812831203139817831603138C1699
:1009F0008312031318168316031398160800831224
:100A0000031310169016901190108E018F01101480
:100A1000831603130C14080083120313E1008316DA
:100A20000313981C0F2D831203136108990008000B
:100A300064008001840A0406031900340406192D99
:0C0A40000B178B17831203138C12080095
:02400E007AFF37
:00000001FF
