:0600000000F05BEF00F0D0
:10000800FFFF1882FACF01F0FBCF02F0E9CF03F02F
:10001800EACF04F0E1CF05F0E2CF06F0D9CF07F040
:10002800DACF08F0F3CF09F0F4CF0AF0F6CF0BF0EF
:10003800F7CF0CF0F8CF0DF0F5CF0EF09EAA17D041
:100048001550010D0F0EF324D96E000EF420DA6E50
:1000580091EC00F0DF6E1528156E040E1518D8A463
:1000680002D0000E156EFFFF010E166E9E9AFFFF5E
:100078000EC0F5FF0DC0F8FF0CC0F7FF0BC0F6FF70
:100088000AC0F4FF09C0F3FF08C0DAFF07C0D9FFB0
:1000980006C0E2FF05C0E1FF04C0EAFF03C0E9FFB4
:1000A80002C0FBFF01C0FAFF18921100FFFF86EFA4
:1000B80000F0FFFF000E966EC196C184C182C19008
:1000C800000E926E000E936E000E956E800E946E6A
:1000D8009BEC00F0A4EC00F0FFFF1650D8B4FCD75E
:1000E8000FC083FF10C081FF1150070B846E1138B9
:1000F800E8461F0B1F0B826E12507F0B806E000E9E
:10010800166EEAD700EE0FF0090EEE6AE806FDE17A
:100118001890189200015DEF00F0FFFFFFFF9EAA04
:10012800FDD7AECF17F017501200FFFFFFFFFFFFFC
:10013800900EAB6E0C0EAF6EAB8EAB881200FFFF4D
:10014800FFFFF28CF28E9D8A9E9A1200FFFFFFFF3E
:020000040020DA
:08000000FFFFFFFFFFFFFFFF00
:020000040030CA
:0E000000FF270F0EFF0185FF0FC00FE00F401E
:00000001FF
