:0600000000F003EF0CF01C
:10000800FFFF6782FACF59F0FBCF5AF0E9CF5BF0D8
:10001800EACF5CF0E1CF5DF0E2CF5EF0D9CF5FF0E0
:10002800DACF60F0F3CF61F0F4CF62F0F6CF63F08F
:10003800F7CF64F0F8CF65F0F5CF66F0F2A43DD1C4
:10004800D59E010E2124216E000E2220226E020E62
:1000580021182210D8A41FD183A202D0010E02D0E9
:10006800FFFF000EFFFFFF0A566E564683505618D4
:10007800FD0B5618836E4F505010D8A404D0000EB4
:10008800286E000E276EFFFF4F045010D8A404D02E
:10009800000E386E000E376EFFFF020E4F1850101C
:1000A800D8A404D0000E3A6E000E396EFFFF030E7E
:1000B8004F185010D8A404D0000E3C6E000E3B6EB2
:1000C800FFFF040E4F185010D8A404D0000E3E6E47
:1000D800000E3D6EFFFF050E4F185010D8A404D037
:1000E800000E406E000E3F6EFFFF060E4F185010B8
:1000F800D8A404D0000E426E000E416EFFFF070E1A
:100108004F185010D8A404D0000E446E000E436E51
:10011800FFFF080E4F185010D8A404D0000E466EEA
:10012800000E456EFFFF090E4F185010D8A404D0DA
:10013800000E2A6E000E296EFFFF0A0E4F1850108F
:10014800D8A404D0000E2C6E000E2B6EFFFF0B0EF1
:100158004F185010D8A404D0000E2E6E000E2D6E2D
:10016800FFFF0C0E4F185010D8A404D0000E306EAC
:10017800000E2F6EFFFF0D0E4F185010D8A404D09C
:10018800000E326E000E316EFFFF0E0E4F1850102B
:10019800D8A404D0000E346E000E336EFFFF0F0E8D
:1001A8004F185010D8A404D0000E366E000E356ECD
:1001B800FFFF50BE06D0505026E1080E4F5CD8B065
:1001C80022D0FFFF4FC056F0000E576E000E586E3B
:1001D800562A04D0FFFFD89057365836FFFF562EC0
:1001E800F9D747505710476E48505810486E010EBF
:1001F8004F244F6E000E5020506E4FC080FF000EEF
:10020800226E000E216EFFFF50BE32D0505004E126
:10021800080E4F5CD8A02CD050BE06D0505028E114
:10022800100E4F5CD8B024D0FFFF4FC056F0F80E28
:100238005626000E576E000E586E562A04D0FFFF41
:10024800D89057365836FFFF562EF9D751505710C9
:10025800516E52505810526E010E4F244F6E000EC0
:100268005020506E4FC080FF000E226E000E216E8F
:10027800FFFF100E4F185010D8A40DD0000E506E6E
:10028800000E4F6E000E226E030E216E8186F298CC
:10029800F0868194D58EFFFF000ED66E000ED76EC5
:1002A800F29422BE0AD022BE06D0225006E1020EE7
:1002B800215CD8B002D0FFFFD58EFFFF9EA068D189
:1002C800CD90000ECE6E000ECF6E83A402D0010E2C
:1002D80002D0FFFF000EFFFFFF0A566E5646564635
:1002E80083505618FB0B5618836E010E2324236E79
:1002F800000E2420246E020E23182410D8A43AD10C
:1003080083A602D0010E02D0FFFF000EFFFFFF0AF6
:10031800566E56465646564683505618F70B56188C
:10032800836E4F505010D8A404D0000E286E000ED3
:10033800276EFFFF4F045010D8A404D0000E386E6B
:10034800000E376EFFFF020E4F185010D8A404D0CD
:10035800000E3A6E000E396EFFFF030E4F18501054
:10036800D8A404D0000E3C6E000E3B6EFFFF040EB6
:100378004F185010D8A404D0000E3E6E000E3D6EEB
:10038800FFFF050E4F185010D8A404D0000E406E81
:10039800000E3F6EFFFF060E4F185010D8A404D071
:1003A800000E426E000E416EFFFF070E4F185010F0
:1003B800D8A404D0000E446E000E436EFFFF080E52
:1003C8004F185010D8A404D0000E466E000E456E8B
:1003D800FFFF090E4F185010D8A404D0000E2A6E43
:1003E800000E296EFFFF0A0E4F185010D8A404D033
:1003F800000E2C6E000E2B6EFFFF0B0E4F185010C8
:10040800D8A404D0000E2E6E000E2D6EFFFF0C0E29
:100418004F185010D8A404D0000E306E000E2F6E66
:10042800FFFF0D0E4F185010D8A404D0000E326EE6
:10043800000E316EFFFF0E0E4F185010D8A404D0D6
:10044800000E346E000E336EFFFF0F0E4F18501063
:10045800D8A404D0000E366E000E356EFFFF50BED5
:1004680006D050502BE1080E4F5CD8B027D0FFFFC4
:100478004FC056F0000E576E000E586E562A04D024
:10048800FFFFD89057365836FFFF562EF9D74950F8
:100498005710496E4A5058104A6E010E4F244F6E3D
:1004A800000E5020506E4F38F00B816E000E246EF7
:1004B800000E236E000E446E000E436EFFFF50BE0A
:1004C80037D0505004E1080E4F5CD8A031D050BE50
:1004D80006D050502DE1100E4F5CD8B029D0FFFF48
:1004E8004FC056F0F80E5626000E576E000E586E86
:1004F800562A04D0FFFFD89057365836FFFF562E9D
:10050800F9D753505710536E54505810546E010E6B
:100518004F244F6E000E5020506E4F38F00B816EF6
:10052800000E246E000E236E000E366E000E356E21
:10053800FFFF100E4F185010D8A41CD047506EEC77
:100548000CF051506EEC0CF049506EEC0CF053501E
:100558006EEC0CF0000E506E000E4F6E8196F28815
:10056800F096000ECE6E000ECF6E8184000E246EC3
:10057800030E236EFFFF9E9024BE0AD024BE06D031
:10058800245006E1020E235CD8B002D0FFFFCD80D4
:10059800FFFFF2B8F2A24CEF07F0838C4F505010D7
:1005A800D8A43FD0D59EF294000ED66E000ED76E1A
:1005B800000E226E000E216ED58E000E806E010E8A
:1005C8002724276E000E2820286E040E27182810CE
:1005D800D8A425D0000E226E000E216ED59EF2946E
:1005E8004FC056F0010E576E000E586E562A04D0B2
:1005F800FFFFD89057365836FFFF562EF9D7475089
:100608005710476E48505810486E010E4F244F6ED1
:10061800000E5020506E000E286E000E276EFFFF51
:10062800F292FFFF4F045010D8A43FD0D59EF29409
:10063800000E226E000E216E000ED66E000ED76ED2
:10064800D58E010E806E010E3724376E000E3820CD
:10065800386E040E37183810D8A425D0000E226E34
:10066800000E216ED59EF2944FC056F0010E576EC3
:10067800000E586E562A04D0FFFFD89057365836C9
:10068800FFFF562EF9D747505710476E485058105D
:10069800486E010E4F244F6E000E5020506E000E13
:1006A800386E000E376EFFFFF292FFFF020E4F18F2
:1006B8005010D8A43FD0D59EF294000E226E000EA2
:1006C800216E000ED66E000ED76ED58E020E806E8D
:1006D800010E3924396E000E3A203A6E040E39188C
:1006E8003A10D8A425D0000E226E000E216ED59E99
:1006F800F2944FC056F0010E576E000E586E562AEF
:1007080004D0FFFFD89057365836FFFF562EF9D73A
:1007180047505710476E48505810486E010E4F24E6
:100728004F6E000E5020506E000E3A6E000E396E5D
:10073800FFFFF292FFFF030E4F185010D8A43FD0CE
:10074800D59EF294000E226E000E216E000ED66E1B
:10075800000ED76ED58E030E806E010E3B243B6EC5
:10076800000E3C203C6E040E3B183C10D8A425D04B
:10077800000E226E000E216ED59EF2944FC056F0E8
:10078800010E576E000E586E562A04D0FFFFD890FF
:1007980057365836FFFF562EF9D747505710476E31
:1007A80048505810486E010E4F244F6E000E5020CE
:1007B800506E000E3C6E000E3B6EFFFFF292FFFF84
:1007C800040E4F185010D8A43FD0D59EF294000EB6
:1007D800226E000E216E000ED66E000ED76ED58EDC
:1007E800040E806E010E3D243D6E000E3E203E6ECE
:1007F800040E3D183E10D8A425D0000E226E000E1F
:10080800216ED59EF2944FC056F0010E576E000E21
:10081800586E562A04D0FFFFD89057365836FFFF37
:10082800562EF9D747505710476E48505810486E03
:10083800010E4F244F6E000E5020506E000E3E6E7B
:10084800000E3D6EFFFFF292FFFF050E4F1850108D
:10085800D8A43FD0D59EF294000E226E000E216ED1
:10086800000ED66E000ED76ED58E050E806E010E68
:100878003F243F6E000E4020406E040E3F1840108B
:10088800D8A425D0000E226E000E216ED59EF294BB
:100898004FC056F0010E576E000E586E562A04D0FF
:1008A800FFFFD89057365836FFFF562EF9D74750D6
:1008B8005710476E48505810486E010E4F244F6E1F
:1008C800000E5020506E000E406E000E3F6EFFFF6F
:1008D800F292FFFF060E4F185010D8A43FD0D59EB5
:1008E800F294000E226E000E216E000ED66E000EDF
:1008F800D76ED58E060E806E010E4124416E000E15
:100908004220426E040E41184210D8A425D0000E91
:10091800226E000E216ED59EF2944FC056F0010E45
:10092800576E000E586E562A04D0FFFFD8905736DF
:100938005836FFFF562EF9D747505710476E485084
:100948005810486E010E4F244F6E000E5020506E06
:10095800000E426E000E416EFFFFF292FFFF070E7F
:100968004F185010D8A43FD0D59EF294000E226E96
:10097800000E216E000ED66E000ED76ED58E070EB5
:10098800806E010E4324436E000E4420446E040E14
:1009980043184410D8A425D0000E226E000E216EF4
:1009A800D59EF2944FC056F0010E576E000E586E49
:1009B800562A04D0FFFFD89057365836FFFF562ED8
:1009C800F9D747505710476E48505810486E010ED7
:1009D8004F244F6E000E5020506E000E446E000ED5
:1009E800436EFFFFF292FFFF080E4F185010D8A475
:1009F80041D0D59EF294080E806E000E226E000E35
:100A0800216E000ED66E000ED76ED58E010E4524CF
:100A1800456E000E4620466E040E45184610D8A4B2
:100A280027D0000E226E000E216ED59EF2944FC084
:100A380056F0F80E5626010E576E000E586E562ABE
:100A480004D0FFFFD89057365836FFFF562EF9D7F7
:100A580051505710516E52505810526E010E4F247B
:100A68004F6E000E5020506E000E466E000E456E02
:100A7800FFFFF292FFFF090E4F185010D8A441D083
:100A8800D59EF294000E226E000E216E000ED66ED8
:100A9800000ED76ED58E090E806E010E2924296EA0
:100AA800000E2A202A6E040E29182A10D8A427D04E
:100AB800000E226E000E216ED59EF2944FC056F0A5
:100AC800F80E5626010E576E000E586E562A04D0A0
:100AD800FFFFD89057365836FFFF562EF9D751509A
:100AE8005710516E52505810526E010E4F244F6ECF
:100AF800000E5020506E000E2A6E000E296EFFFF69
:100B0800F292FFFF0A0E4F185010D8A441D0D59E7C
:100B1800F294000E226E000E216E000ED66E000EAC
:100B2800D76ED58E0A0E806E010E2B242B6E000E0A
:100B38002C202C6E040E2B182C10D8A427D0000EB5
:100B4800226E000E216ED59EF2944FC056F0F80E1C
:100B58005626010E576E000E586E562A04D0FFFF17
:100B6800D89057365836FFFF562EF9D751505710A0
:100B7800516E52505810526E010E4F244F6E000E97
:100B88005020506E000E2C6E000E2B6EFFFFF2925E
:100B9800FFFF0B0E4F185010D8A441D0D59EF294E9
:100BA800000E226E000E216E000ED66E000ED76E5D
:100BB800D58E0B0E806E010E2D242D6E000E2E206C
:100BC8002E6E040E2D182E10D8A427D0000E226EDB
:100BD800000E216ED59EF2944FC056F0F80E5626A0
:100BE800010E576E000E586E562A04D0FFFFD8909B
:100BF80057365836FFFF562EF9D751505710516EB9
:100C080052505810526E010E4F244F6E000E502055
:100C1800506E000E2E6E000E2D6EFFFFF292FFFF3B
:100C28000C0E4F185010D8A441D0D59EF294000E47
:100C3800226E000E216E000ED66E000ED76ED58E77
:100C48000C0E806E010E2F242F6E000E3020306E99
:100C5800040E2F183010D8A427D0000E226E000ED4
:100C6800216ED59EF2944FC056F0F80E5626010E0E
:100C7800576E000E586E562A04D0FFFFD89057368C
:100C88005836FFFF562EF9D751505710516E525013
:100C98005810526E010E4F244F6E000E5020506EA9
:100CA800000E306E000E2F6EFFFFF292FFFF0D0E4A
:100CB8004F185010D8A441D0D59EF294000E226E41
:100CC800000E216E000ED66E000ED76ED58E0D0E5C
:100CD800806E010E3124316E000E3220326E040E09
:100CE80031183210D8A427D0000E226E000E216EC3
:100CF800D59EF2944FC056F0F80E5626010E576E48
:100D0800000E586E562A04D0FFFFD8905736583632
:100D1800FFFF562EF9D751505710516E52505810A8
:100D2800526E010E4F244F6E000E5020506E000E72
:100D3800326E000E316EFFFFF292FFFF0E0E4F185B
:100D48005010D8A441D0D59EF294000E226E000E09
:100D5800216E000ED66E000ED76ED58E0E0E806EEA
:100D6800010E3324336E000E3420346E040E331813
:100D78003410D8A427D0000E226E000E216ED59E06
:100D8800F2944FC056F0F80E5626010E576E000E1C
:100D9800586E562A04D0FFFFD89057365836FFFFB2
:100DA800562EF9D751505710516E52505810526E56
:100DB800010E4F244F6E000E5020506E000E346E00
:100DC800000E336EFFFFF292FFFF0F0E4F18501008
:100DD800D8A441D0D59EF294000E226E000E216E4A
:100DE800000ED66E000ED76ED58E0F0E806E010ED9
:100DF8003524356E000E3620366E040E3518361042
:100E0800D8A427D0000E226E000E216ED59EF29433
:100E18004FC056F0F80E5626010E576E000E586E4B
:100E2800562A04D0FFFFD89057365836FFFF562E63
:100E3800F9D751505710516E52505810526E010E3A
:100E48004F244F6E000E5020506E000E366E000E6E
:100E5800356EFFFFF292FFFF100E4F185010D8A406
:100E680017D0D59EF294F292000ED66E000ED76E71
:100E7800000E506E000E4F6E000E226E000E216E98
:100E8800000E836E849284948186F298F086819411
:100E9800FFFFF0B6F0A0E3EF0BF0838C4F5050103B
:100EA800D8A440D0CD909E90000E246E000E236EE4
:100EB800000ECE6E000ECF6ECD808198819A819CF7
:100EC800819E010E2724276E000E2820286E040E0E
:100ED80027182810D8A424D0000E246E000E236EE4
:100EE800CD904FC056F0010E576E000E586E562A20
:100EF80004D0FFFFD89057365836FFFF562EF9D743
:100F080049505710496E4A5058104A6E010E4F24E6
:100F18004F6E000E5020506E000E286E000E276E89
:100F2800FFFFF090FFFF4F045010D8A440D0CD90A1
:100F38009E90000E246E000E236E000ECE6E000EE4
:100F4800CF6ECD808188819A819C819E010E372445
:100F5800376E000E3820386E040E37183810D8A4B3
:100F680024D0000E246E000E236ECD904FC056F094
:100F7800010E576E000E586E562A04D0FFFFD89007
:100F880057365836FFFF562EF9D749505710496E35
:100F98004A5058104A6E010E4F244F6E000E5020D2
:100FA800506E000E386E000E376EFFFFF090FFFF98
:100FB800020E4F185010D8A440D0CD909E90000E2D
:100FC800246E000E236E000ECE6E000ECF6ECD8006
:100FD8008198818A819C819E010E3924396E000E88
:100FE8003A203A6E040E39183A10D8A424D0000ECC
:100FF800246E000E236ECD904FC056F0010E576E32
:10100800000E586E562A04D0FFFFD890573658362F
:10101800FFFF562EF9D749505710496E4A505810BD
:101028004A6E010E4F244F6E000E5020506E000E77
:101038003A6E000E396EFFFFF090FFFF030E4F1857
:101048005010D8A440D0CD909E90000E246E000E73
:10105800236E000ECE6E000ECF6ECD808188818A01
:10106800819C819E010E3B243B6E000E3C203C6E11
:10107800040E3B183C10D8A424D0000E246E000E99
:10108800236ECD904FC056F0010E576E000E586E6D
:10109800562A04D0FFFFD89057365836FFFF562EF1
:1010A800F9D749505710496E4A5058104A6E010EE8
:1010B8004F244F6E000E5020506E000E3C6E000EF6
:1010C8003B6EFFFFF090FFFF040E4F185010D8A49E
:1010D80040D0CD909E90000E246E000E236E000E20
:1010E800CE6E000ECF6ECD808198819A818C819EC4
:1010F800010E3D243D6E000E3E203E6E040E3D184E
:101108003E10D8A424D0000E246E000E236ECD907D
:101118004FC056F0010E576E000E586E562A04D076
:10112800FFFFD89057365836FFFF562EF9D749504B
:101138005710496E4A5058104A6E010E4F244F6E90
:10114800000E5020506E000E3E6E000E3D6EFFFFEA
:10115800F090FFFF050E4F185010D8A43ED0CD9048
:101168009E90000ECE6E000ECF6E000ECF6ECD801C
:101178008188819A818C819E010E3F243F6E000EEA
:101188004020406E040E3F184010D8A424D0000E12
:10119800246E000E236ECD904FC056F0010E576E90
:1011A800000E586E562A04D0FFFFD890573658368E
:1011B800FFFF562EF9D749505710496E4A5058101C
:1011C8004A6E010E4F244F6E000E5020506E000ED6
:1011D800406E000E3F6EFFFFF090FFFF060E4F18A7
:1011E8005010D8A440D0CD909E90000E246E000ED2
:1011F800236E000ECE6E000ECF6ECD808198818A50
:10120800818C819E010E4124416E000E4220426E67
:10121800040E41184210D8A424D0000E246E000EEB
:10122800236ECD904FC056F0010E576E000E586ECB
:10123800562A04D0FFFFD89057365836FFFF562E4F
:10124800F9D749505710496E4A5058104A6E010E46
:101258004F244F6E000E5020506E000E426E000E4E
:10126800416EFFFFF090FFFF070E4F185010D8A4F3
:1012780040D0CD909E90000E246E000E236E000E7E
:10128800CE6E000ECF6ECD808188818A818C819E42
:10129800010E4324436E000E4420446E040E43188E
:1012A8004410D8A424D0000E246E000E236ECD90D6
:1012B8004FC056F0010E576E000E586E562A04D0D5
:1012C800FFFFD89057365836FFFF562EF9D74950AA
:1012D8005710496E4A5058104A6E010E4F244F6EEF
:1012E800000E5020506E000E446E000E436EFFFF3D
:1012F800F090FFFF080E4F185010D8A442D0CD90A0
:101308009E90000E246E000E236E000ECE6E000E10
:10131800CF6ECD808198819A819C818E010E452463
:10132800456E000E4620466E040E45184610D8A499
:1013380026D0000E246E000E236ECD904FC056F0BE
:10134800F80E5626010E576E000E586E562A04D017
:10135800FFFFD89057365836FFFF562EF9D753500F
:101368005710536E54505810546E010E4F244F6E40
:10137800000E5020506E000E466E000E456EFFFFA8
:10138800F090FFFF090E4F185010D8A442D0CD900E
:101398009E90000E246E000E236E000ECE6E000E80
:1013A800CF6ECD808188819A819C818E010E2924FF
:1013B800296E000E2A202A6E040E29182A10D8A495
:1013C80026D0000E246E000E236ECD904FC056F02E
:1013D800F80E5626010E576E000E586E562A04D087
:1013E800FFFFD89057365836FFFF562EF9D753507F
:1013F8005710536E54505810546E010E4F244F6EB0
:10140800000E5020506E000E2A6E000E296EFFFF4F
:10141800F090FFFF0A0E4F185010D8A442D0CD907C
:101428009E90000E246E000E236E000ECE6E000EEF
:10143800CF6ECD808198818A819C818E010E2B246C
:101448002B6E000E2C202C6E040E2B182C10D8A4FA
:1014580026D0000E246E000E236ECD904FC056F09D
:10146800F80E5626010E576E000E586E562A04D0F6
:10147800FFFFD89057365836FFFF562EF9D75350EE
:101488005710536E54505810546E010E4F244F6E1F
:10149800000E5020506E000E2C6E000E2B6EFFFFBB
:1014A800F090FFFF0B0E4F185010D8A442D0CD90EB
:1014B8009E90000E246E000E236E000ECE6E000E5F
:1014C800CF6ECD808188818A819C818E010E2D24EA
:1014D8002D6E000E2E202E6E040E2D182E10D8A460
:1014E80026D0000E246E000E236ECD904FC056F00D
:1014F800F80E5626010E576E000E586E562A04D066
:10150800FFFFD89057365836FFFF562EF9D753505D
:101518005710536E54505810546E010E4F244F6E8E
:10152800000E5020506E000E2E6E000E2D6EFFFF26
:10153800F090FFFF0C0E4F185010D8A442D0CD9059
:101548009E90000E246E000E236E000ECE6E000ECE
:10155800CF6ECD808198819A818C818E010E2F2447
:101568002F6E000E3020306E040E2F183010D8A4C5
:1015780026D0000E246E000E236ECD904FC056F07C
:10158800F80E5626010E576E000E586E562A04D0D5
:10159800FFFFD89057365836FFFF562EF9D75350CD
:1015A8005710536E54505810546E010E4F244F6EFE
:1015B800000E5020506E000E306E000E2F6EFFFF92
:1015C800F090FFFF0D0E4F185010D8A442D0CD90C8
:1015D8009E90000E246E000E236E000ECE6E000E3E
:1015E800CF6ECD808188819A818C818E010E3124C5
:1015F800316E000E3220326E040E31183210D8A42B
:1016080026D0000E246E000E236ECD904FC056F0EB
:10161800F80E5626010E576E000E586E562A04D044
:10162800FFFFD89057365836FFFF562EF9D753503C
:101638005710536E54505810546E010E4F244F6E6D
:10164800000E5020506E000E326E000E316EFFFFFD
:10165800F090FFFF0E0E4F185010D8A442D0CD9036
:101668009E90000E246E000E236E000ECE6E000EAD
:10167800CF6ECD808198818A818C818E010E332432
:10168800336E000E3420346E040E33183410D8A490
:1016980026D0000E246E000E236ECD904FC056F05B
:1016A800F80E5626010E576E000E586E562A04D0B4
:1016B800FFFFD89057365836FFFF562EF9D75350AC
:1016C8005710536E54505810546E010E4F244F6EDD
:1016D800000E5020506E000E346E000E336EFFFF69
:1016E800F090FFFF0F0E4F185010D8A442D0CD90A5
:1016F8009E90000E246E000E236E000ECE6E000E1D
:10170800CF6ECD808188818A818C818E010E3524AF
:10171800356E000E3620366E040E35183610D8A4F5
:1017280026D0000E246E000E236ECD904FC056F0CA
:10173800F80E5626010E576E000E586E562A04D023
:10174800FFFFD89057365836FFFF562EF9D753501B
:101758005710536E54505810546E010E4F244F6E4C
:10176800000E5020506E000E366E000E356EFFFFD4
:10177800F090FFFF100E4F185010D8A420D0CD9035
:1017880047506EEC0CF051506EEC0CF049506EEC7A
:101798000CF053506EEC0CF08196F28AF288F096B9
:1017A800000ECF6E000ECE6E000E506E000E4F6E05
:1017B800000E246E000E236E84928494F090FFFF36
:1017C80066C0F5FF65C0F8FF64C0F7FF63C0F6FFA9
:1017D80062C0F4FF61C0F3FF60C0DAFF5FC0D9FFE9
:1017E8005EC0E2FF5DC0E1FF5CC0EAFF5BC0E9FFED
:1017F8005AC0FBFF59C0FAFF67921100FFFF63EF61
:101808000CF0FFFF060EC16E000E806E000E926E89
:10181800000E836E000E956E938093829396939438
:101828009398939A939C939E110ED56E000ED66E44
:10183800000ED76E000ECD6E000ECE6E000ECF6E6F
:10184800F28CF294F28A9E909D809D889E98F288F0
:10185800F292F18CF090F18AD59ECD9078EC0CF054
:1018680081848186000E266E000E256EFFFF26BE3F
:1018780006D0F40E255C010E2658D8B006D0FFFF1E
:101888004EEC0CF0254A262AF1D7FFFF8196F28EFE
:10189800FFFFFED7FFFF000E4C6E000E4B6EFFFFE2
:1018A8004CBE06D0F40E4B5C010E4C58D8B004D098
:1018B800FFFF4B4A4C2AF3D7FFFF1200FFFF00EE51
:1018C80001F0540EEE6AE806FDE1679067920001A8
:1018D80005EF0CF0FFFF556EFFFFACA2FDD755C01A
:1018E800ADFF1200FFFFFFFFFFFF200EAC6E0C0ED6
:0C18F800AF6EAB8EAC8A1200FFFFFFFF4A
:020000040020DA
:08000000FFFFFFFFFFFFFFFF00
:020000040030CA
:0E000000FF220F0EFF0185FF0FC00FE00F4023
:00000001FF
